1003019395000162RS080349VINHOS PELIZZER LTDA                    TRAV FELISBERTO DA SILVA                0430820195270000V4.5                                    
11(54)3292-6708                 020480009600     Douglas Antonio Pelizzer      Douglas Antonio Pelizzer      0005404867douglas.cantina@hotmail.com              
1503019395000162RS-2816/2019   VINHO TINTO DE MESA SECO                                         001010404501002019LT                                            
1503019395000162RS-2890/2019   VINHO TINTO DE MESA SECO BORDO                                   001010404011002019LT                                            
1503019395000162RS-340/2019    VINHO TINTO DE MESA SECO                                         001010404501002019LT                                            
1503019395000162RS-3403/2020   VINHO BRANCO FINO SECO CHADONNAY                                 001020402061002020LT                                            
1503019395000162RS-3404/2020   VINHO TINTO DE MESA SECO BORDO                                   001010404011002020LT                                            
1503019395000162RS-3438/2020   VINHO DE MESA SECO NIAGARA BRANCA                                001020405001002020LT                                            
1503019395000162RS-3443/2020   BASE ESPUMANTE MOSCATEL BRANCO                                   033020702191002020LT                                            
1503019395000162RS-3444/2020   VINHO BRANCO FINO SECO MALVASIA DA CANDIA                        001020402161002020LT                                            
1503019395000162RS-3446/2020   VINHO TINTO DE MESA SECO                                         001010404501002020LT                                            
1503019395000162RS-4686/2019   VINHO TINTO DE MESA SUAVE BORDO                                  001010604011002019LT                                            
1503019395000162RS-5714/2018   VINHO TINTO DE MESA SECO                                         001010404501002018LT                                            
2003019395000162082020230000027139RS10                                                                                                                          
2103019395000162RS-4686/2019   010004693200                                                                                                                     
2003019395000162082020010000001330MG11                                                                                                                          
2103019395000162RS-4686/2019   010000018000                                                                                                                     
2003019395000162082020010000001331MG11                                                                                                                          
2103019395000162RS-4686/2019   010000006000                                                                                                                     
2003019395000162082020010000001332MG11                                                                                                                          
2103019395000162RS-4686/2019   010000018000                                                                                                                     
2003019395000162082020010000001335MG11                                                                                                                          
2103019395000162RS-4686/2019   010000396000                                                                                                                     
2003019395000162082020010000001336MG11                                                                                                                          
2103019395000162RS-4686/2019   010000001200                                                                                                                     
2003019395000162082020010000001337MG11                                                                                                                          
2103019395000162RS-4686/2019   010000004800                                                                                                                     
2003019395000162082020010000001338MG11                                                                                                                          
2103019395000162RS-4686/2019   010000012000                                                                                                                     
2003019395000162082020010000001340BA11                                                                                                                          
2103019395000162RS-4686/2019   010000007200                                                                                                                     
2003019395000162082020010000001341BA11                                                                                                                          
2103019395000162RS-4686/2019   010000001200                                                                                                                     
2003019395000162082020010000001342MG11                                                                                                                          
2103019395000162RS-4686/2019   010000004800                                                                                                                     
2003019395000162082020010000001348MG11                                                                                                                          
2103019395000162RS-4686/2019   010000066000                                                                                                                     
2003019395000162082020010000001350MG11                                                                                                                          
2103019395000162RS-4686/2019   010000198000                                                                                                                     
2003019395000162082020010000001352MG11                                                                                                                          
2103019395000162RS-4686/2019   010000036000                                                                                                                     
2003019395000162082020010000001353MG11                                                                                                                          
2103019395000162RS-4686/2019   010000002400                                                                                                                     
70030193950001620220000923800008202005
900000000000000546480000000000000000000000000000000000000000000000000045                                                                                        
